:03000000020623D2
:0C062300787FE4F6D8FD75816302066A5A
:100582005761726E696E673A2056656869636C6579
:1005920020616E6F6D616C79210D0A004843484FEE
:1005A2003A20202070706D20543A202000536D6F45
:1005B2006B653A2020202070706D002020202020C2
:1005C2002020202020202020202020005365745F3E
:1005D200483A2020202070706D202020005365743E
:1005E2005F533A2020202070706D202020002020B0
:1005F20053797374656D20696E6974202020002020
:1006020020706C6561736520776169742020200019
:10061200536D6F6B653A20202070706D2020202072
:0106220000D7
:1008C700C10101316402230064013300C182024483
:0708D70000000334FF05825D
:0D095F008F9DE4F5BD75BC800000000022F6
:10081E00E4FDFCEF4488F5BC00000000E5BC30E4CC
:10082E00FB53BCEFAFBD7C00AD07ED7E007802C37D
:10083E0033CE33CED8F9FFE5BE5402FDEEFCEF4DBC
:06084E00FDFFE41202931D
:010854002281
:1003C70020B40F7F0A7E001208A920B40530B4FDBF
:1003D700B20230B7030204657F0A7E001208A92023
:1003E700B77C30B7FD7F0112093F0533E533C3946E
:1003F700034003E4F533E53370137BFF7A05799EF9
:10040700FDFF12087D7BFF7A0579AF804AE53364EB
:100417000170207F0112093F7F0A7E001208A97B25
:10042700FF7A0579BDE4FDFF12087D7BFF7A057928
:10043700CE8024E533640270257F0112093F7F0ACD
:100447007E001208A97BFF7A0579BDE4FDFF12083B
:100457007D7BFF7A0579DF7D01E4FF12087D20B6F9
:100467003B7F507E001208A920B631E533B4011056
:100477000531C3E53194E77480948340037531E710
:10048700E533B402170524E52470020523C394E776
:10049700E523940340067523037524E720B5387FC9
:1004A700507E001208A920B52EE533B4010C153192
:1004B700E531D394005003E4F531E533B40218E590
:1004C70024152470021523D3E5249400E523940012
:0804D7005005E4F523F5242291
:10090900438901758CEC758A78D2AFD2A9D28CD281
:02091900B92201
:100046001208F57BFF7A0579F0E4FDFF12087D7B47
:10005600FF7A0679017D01E4FF12087DE4F5097F48
:10006600E87E031208A90509C3E5096480948F4058
:10007600EE1208F57BFF7A05799EE4FDFF12087DF6
:100086007BFF7A0679127D01E4FF12087D120909C9
:100096001208DF12096C7F0112095F1203C7E533EC
:1000A60060030201F9FB7A007925AD2BAC2A120414
:1000B600DFC3EF64809483500BAE070F74252EF8D0
:1000C600762080ED74252FF8E4F6FB7A007925FD7D
:1000D6007F0512087DE4FF12081E1202CC8E3A8FAD
:1000E6003B7C007D02120383AC06AD07EC12029343
:1000F6001202CC8E3A8F3B7B007A00792CAD3BAC5A
:100106003A1204DFC3EF64809483500BAE070F747A
:100116002C2EF8762080ED742C2FF8E4F6FB7A006E
:10012600792C7D017F0612087D300220C3E52B95D0
:10013600317480F8652A98500BC3E53B9524E53A5F
:1001460095234004C2B28006D2B28002D2B2C3E581
:100156002B95317480F8652A984004C2948002D2A7
:1001660094C3E53B9524E53A95234004C295800265
:10017600D2952096582000030200A1C2000539E559
:1001860039D394634003753963E53975F00A8424DD
:1001960030F50AE53975F00A84E5F02430F50BE40C
:1001A600F50CFB7A00790AFD7F0E12087DE539C34E
:1001B600940550030200A1E50860030200A175083A
:1001C60001AB34AA35A93612075E0200A1E4F5395F
:1001D600E53975F00A842430F50AE53975F00A84A4
:1001E600E5F02430F50BE4F50CFB7A00790AFD7F87
:1001F6000E8038E53364017038E53175F064842487
:1002060030F540E53175F06484E5F075F00A842434
:1002160030F541E53175F00A84E5F02430F542E425
:10022600F544FB7A0079407D017F0612087D0200C5
:10023600A1E533640260030200A1AE23AF24FC7D76
:100246006412032EEF2430F53CAE23AF247C007DF0
:100256006412032E7E007F0ACFCDCFCECCCE120302
:100266002EEF2430F53DAE23AF247C007D0A120329
:100276002EED2430F53EE4F540FB7A00793C7D0115
:080286007F0612087D0200A1B1
:0A04DF008B0D8A0E890F8C108D1111
:1004E900E4F512F513C3E51064809480501CC3E44D
:1004F9009511F511E49510F510050FE50F7002053A
:100509000E14F9742D12031C0513AE10AF117C00E3
:100519007D0A120383AF05AE12051274142EF8A6D4
:1005290007AE10AF117C007D0A1203838E108F1164
:10053900D3E5119400E5106480948050CDE512252F
:1005490013F513AF121512D3EF64809480401D7414
:10055900142512F8E62430FFAB0D050FE50FAA0E9E
:100569007002050E14F9EF12031C80D7AB0DAA0E09
:08057900A90FE412031CAF13EB
:010581002257
:0300430002070BA6
:0F070B00C0E0C0D075D000C000C002C005C0065D
:10071A00E59A30E02FAD9BEDF470207846E6B417E9
:10072A001508E6B404107849E6FE08E67A002400C3
:10073A00F52BEA3EF52A753200800974462532F80F
:07074A00A6050532539AFEDB
:0D075100D006D005D002D000D0D0D0E032CC
:03000B0002085593
:04085500C0E0C0D06F
:10085900758CEC758A780522E52270020521C3940E
:0F08690014E52194054008752100752200D20086
:05087800D0D0D0E032F9
:10091B007580FFC2A7D2A6D2A5AF80C2A5EF20E7F4
:01092B00F6D5
:01092C0022A8
:10093F00AE0712091BC2A7C2A68E80D2A5C2A522DE
:10094F00AE0712091BD2A7C2A68E80D2A5C2A522BE
:10092D00ED7004AC078004EF2440FCEC4480FF0222
:02093D00093F70
:10087D008B0D8A0E890F12092DAB0DAA0EA90F1221
:10088D0003036013050FE50F7002050E14F9120333
:08089D0003FF12094F80E22263
:1008F5007F3812093F7F0C12093F7F0612093F7F9F
:040905000102093FA3
:0D096C00759A50759CFD758E1075AF0122B7
:0B0038008F9BE59A30E1FB539AFD22FC
:1007E5008B1A8A1B891CAB1AAA1BA91C120303FFAF
:1007F500601D120038AB1A051CE51CAA1B7002050A
:100805001B14F9120303AA1BA91C12031C80D7ABE6
:090815001AAA1BA91CE402031C31
:1006AF0041542B434D47463D310D0A0041542B43D6
:1006BF005343533D2247534D220D0A0041542B43C0
:1006CF004E4D493D322C322C302C310D0A00415405
:1006DF002B43534D503D31372C3136372C322C3282
:1006EF00350D0A0041542B434D47533D22313533CD
:0C06FF003530383734353237220D0A0010
:1008DF00D2AF759850758920E4F587758DFD758BAE
:0608EF00FDD28EC298222A
:080003008F993099FDC299228A
:0607A6007BFF7A0679AF2B
:1007AC008B108A118912AB10AA11A912120303FF24
:1007BC00601D120003AB100512E512AA11700205A0
:1007CC001114F9120303AA11A91212031C80D7AB3E
:0907DC0010AA11A912E402031C89
:0408A5007FC87E008A
:1008A900EF1FAA0670011E4A6013E4FCFDC3ED9414
:0D08B90020EC940350EA0DBD00010C80F00E
:0108C600220F
:10000E001207A67FF47E011208A97BFF7A0679BB40
:10001E001207AC7FF47E011208A97BFF7A0679CB1A
:0A002E001207AC7FE87E030208A968
:10075E008B0D8A0E890F1207A61208A57BFF7A064B
:10076E0079DD1207AC1208A57BFF7A0679BB12075A
:10077E00AC1208A57BFF7A0679F31207AC1208A516
:10078E00AB0DAA0EA90F1207AC1208A57F1A120004
:08079E00037F887E130208A905
:10028E0075F020800E75F010800575F0087D007EEB
:10029E00007F003392D530D5031203B9EC334010F2
:1002AE00EF33FFEE33FEED33FDEC33FCD5F0ED22F4
:0E02BE00E5F0247EA2D513CC92E7CDCEFF2230
:1002CC00EDD2E7CD33EC3392D524814006E4FFFE2A
:1002DC00FDFC22FCE4CFCECDCC24E0501174FF8089
:1002EC00EDC3CC13CCCD13CDCE13CECF13CF047026
:0702FC00F030D5DE0203B96A
:10062F00020046E493A3F8E493A34003F68001F29B
:10063F0008DFF48029E493A3F85407240CC8C333CC
:10064F00C4540F4420C8834004F456800146F6DF9B
:10065F00E4800B01020408102040809008C7E47E5C
:10066F00019360BCA3FF543F30E509541FFEE49390
:10067F00A360010ECF54C025E060A840B8E493A357
:10068F00FAE493A3F8E493A3C8C582C8CAC583CA82
:10069F00F0A3C8C582C8CAC583CADFE9DEE780BE3A
:0108DE000019
:10030300BB010689828A83E0225002E722BBFE02F8
:09031300E32289828A83E493222B
:10031C00BB010689828A83F0225002F722BBFE01C0
:02032C00F322BA
:10032E00BC000BBE0029EF8DF084FFADF022E4CCB3
:10033E00F875F008EF2FFFEE33FEEC33FCEE9DEC7C
:10034E00984005FCEE9DFE0FD5F0E9E4CEFD22EDC2
:10035E00F8F5F0EE8420D21CFEADF075F008EF2F0C
:10036E00FFED33FD4007985006D5F0F222C398FDFD
:05037E000FD5F0EA229A
:10038300C2D5EC30E709B2D5E4C39DFDE49CFCEE95
:1003930030E715B2D5E4C39FFFE49EFE12032EC3DC
:1003A300E49DFDE49CFC800312032E30D507C3E4D7
:0603B3009FFFE49EFE2204
:0E03B900C3E49FFFE49EFEE49DFDE49CFC2255
:00000001FF
